{
  "_format": "hh-sol-artifact-1",
  "contractName": "ReceiveWithdraw",
  "sourceName": "contracts/utils/ReceiveWithdraw.sol",
  "abi": [
    {
      "anonymous": false,
      "inputs": [
        {
          "indexed": true,
          "internalType": "bytes32",
          "name": "role",
          "type": "bytes32"
        },
        {
          "indexed": true,
          "internalType": "bytes32",
          "name": "previousAdminRole",
          "type": "bytes32"
        },
        {
          "indexed": true,
          "internalType": "bytes32",
          "name": "newAdminRole",
          "type": "bytes32"
        }
      ],
      "name": "RoleAdminChanged",
      "type": "event"
    },
    {
      "anonymous": false,
      "inputs": [
        {
          "indexed": true,
          "internalType": "bytes32",
          "name": "role",
          "type": "bytes32"
        },
        {
          "indexed": true,
          "internalType": "address",
          "name": "account",
          "type": "address"
        },
        {
          "indexed": true,
          "internalType": "address",
          "name": "sender",
          "type": "address"
        }
      ],
      "name": "RoleGranted",
      "type": "event"
    },
    {
      "anonymous": false,
      "inputs": [
        {
          "indexed": true,
          "internalType": "bytes32",
          "name": "role",
          "type": "bytes32"
        },
        {
          "indexed": true,
          "internalType": "address",
          "name": "account",
          "type": "address"
        },
        {
          "indexed": true,
          "internalType": "address",
          "name": "sender",
          "type": "address"
        }
      ],
      "name": "RoleRevoked",
      "type": "event"
    },
    {
      "inputs": [],
      "name": "DEFAULT_ADMIN_ROLE",
      "outputs": [
        {
          "internalType": "bytes32",
          "name": "",
          "type": "bytes32"
        }
      ],
      "stateMutability": "view",
      "type": "function"
    },
    {
      "inputs": [],
      "name": "WITHDRAW_ROLE",
      "outputs": [
        {
          "internalType": "bytes32",
          "name": "",
          "type": "bytes32"
        }
      ],
      "stateMutability": "view",
      "type": "function"
    },
    {
      "inputs": [
        {
          "internalType": "bytes32",
          "name": "role",
          "type": "bytes32"
        }
      ],
      "name": "getRoleAdmin",
      "outputs": [
        {
          "internalType": "bytes32",
          "name": "",
          "type": "bytes32"
        }
      ],
      "stateMutability": "view",
      "type": "function"
    },
    {
      "inputs": [
        {
          "internalType": "bytes32",
          "name": "role",
          "type": "bytes32"
        },
        {
          "internalType": "address",
          "name": "account",
          "type": "address"
        }
      ],
      "name": "grantRole",
      "outputs": [],
      "stateMutability": "nonpayable",
      "type": "function"
    },
    {
      "inputs": [
        {
          "internalType": "bytes32",
          "name": "role",
          "type": "bytes32"
        },
        {
          "internalType": "address",
          "name": "account",
          "type": "address"
        }
      ],
      "name": "hasRole",
      "outputs": [
        {
          "internalType": "bool",
          "name": "",
          "type": "bool"
        }
      ],
      "stateMutability": "view",
      "type": "function"
    },
    {
      "inputs": [
        {
          "internalType": "bytes32",
          "name": "role",
          "type": "bytes32"
        },
        {
          "internalType": "address",
          "name": "account",
          "type": "address"
        }
      ],
      "name": "renounceRole",
      "outputs": [],
      "stateMutability": "nonpayable",
      "type": "function"
    },
    {
      "inputs": [
        {
          "internalType": "bytes32",
          "name": "role",
          "type": "bytes32"
        },
        {
          "internalType": "address",
          "name": "account",
          "type": "address"
        }
      ],
      "name": "revokeRole",
      "outputs": [],
      "stateMutability": "nonpayable",
      "type": "function"
    },
    {
      "inputs": [
        {
          "internalType": "bytes4",
          "name": "interfaceId",
          "type": "bytes4"
        }
      ],
      "name": "supportsInterface",
      "outputs": [
        {
          "internalType": "bool",
          "name": "",
          "type": "bool"
        }
      ],
      "stateMutability": "view",
      "type": "function"
    },
    {
      "inputs": [
        {
          "internalType": "address",
          "name": "to",
          "type": "address"
        },
        {
          "internalType": "uint256",
          "name": "value",
          "type": "uint256"
        }
      ],
      "name": "withdraw",
      "outputs": [],
      "stateMutability": "nonpayable",
      "type": "function"
    },
    {
      "stateMutability": "payable",
      "type": "receive"
    }
  ],
  "bytecode": "0x60806040527f5d8e12c39142ff96d79d04d15d1ba1269e4fe57bb9d26f43523628b34ba108ec60015534801561003457600080fd5b506110e2806100446000396000f3fe60806040526004361061008a5760003560e01c806391d148541161005957806391d1485414610162578063a217fddf1461019f578063d547741f146101ca578063e02023a1146101f3578063f3fef3a31461021e57610091565b806301ffc9a714610096578063248a9ca3146100d35780632f2ff15d1461011057806336568abe1461013957610091565b3661009157005b600080fd5b3480156100a257600080fd5b506100bd60048036038101906100b89190610b7b565b610247565b6040516100ca9190610dbb565b60405180910390f35b3480156100df57600080fd5b506100fa60048036038101906100f59190610b16565b6102c1565b6040516101079190610dd6565b60405180910390f35b34801561011c57600080fd5b5061013760048036038101906101329190610b3f565b6102e0565b005b34801561014557600080fd5b50610160600480360381019061015b9190610b3f565b610309565b005b34801561016e57600080fd5b5061018960048036038101906101849190610b3f565b61038c565b6040516101969190610dbb565b60405180910390f35b3480156101ab57600080fd5b506101b46103f6565b6040516101c19190610dd6565b60405180910390f35b3480156101d657600080fd5b506101f160048036038101906101ec9190610b3f565b6103fd565b005b3480156101ff57600080fd5b50610208610426565b6040516102159190610dd6565b60405180910390f35b34801561022a57600080fd5b5061024560048036038101906102409190610ada565b61042c565b005b60007f7965db0b000000000000000000000000000000000000000000000000000000007bffffffffffffffffffffffffffffffffffffffffffffffffffffffff1916827bffffffffffffffffffffffffffffffffffffffffffffffffffffffff191614806102ba57506102b9826104bc565b5b9050919050565b6000806000838152602001908152602001600020600101549050919050565b6102e9826102c1565b6102fa816102f5610526565b61052e565b61030483836105cb565b505050565b610311610526565b73ffffffffffffffffffffffffffffffffffffffff168173ffffffffffffffffffffffffffffffffffffffff161461037e576040517f08c379a000000000000000000000000000000000000000000000000000000000815260040161037590610e33565b60405180910390fd5b61038882826106ab565b5050565b600080600084815260200190815260200160002060000160008373ffffffffffffffffffffffffffffffffffffffff1673ffffffffffffffffffffffffffffffffffffffff16815260200190815260200160002060009054906101000a900460ff16905092915050565b6000801b81565b610406826102c1565b61041781610412610526565b61052e565b61042183836106ab565b505050565b60015481565b6001546104408161043b610526565b61052e565b60008373ffffffffffffffffffffffffffffffffffffffff168360405161046690610d6c565b60006040518083038185875af1925050503d80600081146104a3576040519150601f19603f3d011682016040523d82523d6000602084013e6104a8565b606091505b50509050806104b657600080fd5b50505050565b60007f01ffc9a7000000000000000000000000000000000000000000000000000000007bffffffffffffffffffffffffffffffffffffffffffffffffffffffff1916827bffffffffffffffffffffffffffffffffffffffffffffffffffffffff1916149050919050565b600033905090565b610538828261038c565b6105c75761055d8173ffffffffffffffffffffffffffffffffffffffff16601461078c565b61056b8360001c602061078c565b60405160200161057c929190610d81565b6040516020818303038152906040526040517f08c379a00000000000000000000000000000000000000000000000000000000081526004016105be9190610df1565b60405180910390fd5b5050565b6105d5828261038c565b6106a757600160008084815260200190815260200160002060000160008373ffffffffffffffffffffffffffffffffffffffff1673ffffffffffffffffffffffffffffffffffffffff16815260200190815260200160002060006101000a81548160ff02191690831515021790555061064c610526565b73ffffffffffffffffffffffffffffffffffffffff168173ffffffffffffffffffffffffffffffffffffffff16837f2f8788117e7eff1d82e926ec794901d17c78024a50270940304540a733656f0d60405160405180910390a45b5050565b6106b5828261038c565b1561078857600080600084815260200190815260200160002060000160008373ffffffffffffffffffffffffffffffffffffffff1673ffffffffffffffffffffffffffffffffffffffff16815260200190815260200160002060006101000a81548160ff02191690831515021790555061072d610526565b73ffffffffffffffffffffffffffffffffffffffff168173ffffffffffffffffffffffffffffffffffffffff16837ff6391f5c32d9c69d2a47ea670b442974b53935d1edc7fd64eb21e047a839171b60405160405180910390a45b5050565b60606000600283600261079f9190610edb565b6107a99190610e85565b67ffffffffffffffff8111156107e8577f4e487b7100000000000000000000000000000000000000000000000000000000600052604160045260246000fd5b6040519080825280601f01601f19166020018201604052801561081a5781602001600182028036833780820191505090505b5090507f300000000000000000000000000000000000000000000000000000000000000081600081518110610878577f4e487b7100000000000000000000000000000000000000000000000000000000600052603260045260246000fd5b60200101907effffffffffffffffffffffffffffffffffffffffffffffffffffffffffffff1916908160001a9053507f780000000000000000000000000000000000000000000000000000000000000081600181518110610902577f4e487b7100000000000000000000000000000000000000000000000000000000600052603260045260246000fd5b60200101907effffffffffffffffffffffffffffffffffffffffffffffffffffffffffffff1916908160001a905350600060018460026109429190610edb565b61094c9190610e85565b90505b6001811115610a38577f3031323334353637383961626364656600000000000000000000000000000000600f8616601081106109b4577f4e487b7100000000000000000000000000000000000000000000000000000000600052603260045260246000fd5b1a60f81b8282815181106109f1577f4e487b7100000000000000000000000000000000000000000000000000000000600052603260045260246000fd5b60200101907effffffffffffffffffffffffffffffffffffffffffffffffffffffffffffff1916908160001a905350600485901c945080610a3190610fe6565b905061094f565b5060008414610a7c576040517f08c379a0000000000000000000000000000000000000000000000000000000008152600401610a7390610e13565b60405180910390fd5b8091505092915050565b600081359050610a9581611050565b92915050565b600081359050610aaa81611067565b92915050565b600081359050610abf8161107e565b92915050565b600081359050610ad481611095565b92915050565b60008060408385031215610aed57600080fd5b6000610afb85828601610a86565b9250506020610b0c85828601610ac5565b9150509250929050565b600060208284031215610b2857600080fd5b6000610b3684828501610a9b565b91505092915050565b60008060408385031215610b5257600080fd5b6000610b6085828601610a9b565b9250506020610b7185828601610a86565b9150509250929050565b600060208284031215610b8d57600080fd5b6000610b9b84828501610ab0565b91505092915050565b610bad81610f47565b82525050565b610bbc81610f53565b82525050565b6000610bcd82610e53565b610bd78185610e69565b9350610be7818560208601610fb3565b610bf08161103f565b840191505092915050565b6000610c0682610e53565b610c108185610e7a565b9350610c20818560208601610fb3565b80840191505092915050565b6000610c39602083610e69565b91507f537472696e67733a20686578206c656e67746820696e73756666696369656e746000830152602082019050919050565b6000610c79600083610e5e565b9150600082019050919050565b6000610c93601783610e7a565b91507f416363657373436f6e74726f6c3a206163636f756e74200000000000000000006000830152601782019050919050565b6000610cd3601183610e7a565b91507f206973206d697373696e6720726f6c65200000000000000000000000000000006000830152601182019050919050565b6000610d13602f83610e69565b91507f416363657373436f6e74726f6c3a2063616e206f6e6c792072656e6f756e636560008301527f20726f6c657320666f722073656c6600000000000000000000000000000000006020830152604082019050919050565b6000610d7782610c6c565b9150819050919050565b6000610d8c82610c86565b9150610d988285610bfb565b9150610da382610cc6565b9150610daf8284610bfb565b91508190509392505050565b6000602082019050610dd06000830184610ba4565b92915050565b6000602082019050610deb6000830184610bb3565b92915050565b60006020820190508181036000830152610e0b8184610bc2565b905092915050565b60006020820190508181036000830152610e2c81610c2c565b9050919050565b60006020820190508181036000830152610e4c81610d06565b9050919050565b600081519050919050565b600081905092915050565b600082825260208201905092915050565b600081905092915050565b6000610e9082610fa9565b9150610e9b83610fa9565b9250827fffffffffffffffffffffffffffffffffffffffffffffffffffffffffffffffff03821115610ed057610ecf611010565b5b828201905092915050565b6000610ee682610fa9565b9150610ef183610fa9565b9250817fffffffffffffffffffffffffffffffffffffffffffffffffffffffffffffffff0483118215151615610f2a57610f29611010565b5b828202905092915050565b6000610f4082610f89565b9050919050565b60008115159050919050565b6000819050919050565b60007fffffffff0000000000000000000000000000000000000000000000000000000082169050919050565b600073ffffffffffffffffffffffffffffffffffffffff82169050919050565b6000819050919050565b60005b83811015610fd1578082015181840152602081019050610fb6565b83811115610fe0576000848401525b50505050565b6000610ff182610fa9565b9150600082141561100557611004611010565b5b600182039050919050565b7f4e487b7100000000000000000000000000000000000000000000000000000000600052601160045260246000fd5b6000601f19601f8301169050919050565b61105981610f35565b811461106457600080fd5b50565b61107081610f53565b811461107b57600080fd5b50565b61108781610f5d565b811461109257600080fd5b50565b61109e81610fa9565b81146110a957600080fd5b5056fea26469706673582212200269c1b6badf4acfabd03902602c5ac9b9bc0240d09f5ff5d99eb6a61947ee7764736f6c63430008000033",
  "linkReferences": {},
  "deployedLinkReferences": {}
}