{
  "_format": "hh-sol-artifact-1",
  "contractName": "FeeTakers",
  "sourceName": "contracts/fee/FeeTakers.sol",
  "abi": [
    {
      "anonymous": false,
      "inputs": [
        {
          "indexed": false,
          "internalType": "address",
          "name": "to",
          "type": "address"
        },
        {
          "indexed": false,
          "internalType": "uint256",
          "name": "amount",
          "type": "uint256"
        }
      ],
      "name": "FeeSent",
      "type": "event"
    },
    {
      "anonymous": false,
      "inputs": [
        {
          "indexed": true,
          "internalType": "address",
          "name": "previousOwner",
          "type": "address"
        },
        {
          "indexed": true,
          "internalType": "address",
          "name": "newOwner",
          "type": "address"
        }
      ],
      "name": "OwnershipTransferred",
      "type": "event"
    },
    {
      "inputs": [
        {
          "internalType": "address",
          "name": "addr",
          "type": "address"
        },
        {
          "internalType": "uint256",
          "name": "points",
          "type": "uint256"
        }
      ],
      "name": "addToFeeTakers",
      "outputs": [],
      "stateMutability": "nonpayable",
      "type": "function"
    },
    {
      "inputs": [],
      "name": "deleteFeeTakers",
      "outputs": [],
      "stateMutability": "nonpayable",
      "type": "function"
    },
    {
      "inputs": [],
      "name": "getFeeTakers",
      "outputs": [
        {
          "components": [
            {
              "internalType": "address",
              "name": "addr",
              "type": "address"
            },
            {
              "internalType": "uint256",
              "name": "points",
              "type": "uint256"
            }
          ],
          "internalType": "struct FeeTaker[]",
          "name": "",
          "type": "tuple[]"
        }
      ],
      "stateMutability": "view",
      "type": "function"
    },
    {
      "inputs": [],
      "name": "owner",
      "outputs": [
        {
          "internalType": "address",
          "name": "",
          "type": "address"
        }
      ],
      "stateMutability": "view",
      "type": "function"
    },
    {
      "inputs": [
        {
          "internalType": "uint256",
          "name": "index",
          "type": "uint256"
        }
      ],
      "name": "removeFromFeeTakers",
      "outputs": [],
      "stateMutability": "nonpayable",
      "type": "function"
    },
    {
      "inputs": [],
      "name": "renounceOwnership",
      "outputs": [],
      "stateMutability": "nonpayable",
      "type": "function"
    },
    {
      "inputs": [
        {
          "internalType": "address",
          "name": "newOwner",
          "type": "address"
        }
      ],
      "name": "transferOwnership",
      "outputs": [],
      "stateMutability": "nonpayable",
      "type": "function"
    },
    {
      "inputs": [
        {
          "internalType": "uint256",
          "name": "amount",
          "type": "uint256"
        }
      ],
      "name": "withdraw",
      "outputs": [],
      "stateMutability": "nonpayable",
      "type": "function"
    }
  ],
  "bytecode": "0x608060405234801561001057600080fd5b5061002d61002261003960201b60201c565b61004160201b60201c565b60018081905550610105565b600033905090565b60008060009054906101000a900473ffffffffffffffffffffffffffffffffffffffff169050816000806101000a81548173ffffffffffffffffffffffffffffffffffffffff021916908373ffffffffffffffffffffffffffffffffffffffff1602179055508173ffffffffffffffffffffffffffffffffffffffff168173ffffffffffffffffffffffffffffffffffffffff167f8be0079c531659141344cd1fd0a4f28419497f9722a3daafe3b4186f6b6457e060405160405180910390a35050565b610e81806101146000396000f3fe608060405234801561001057600080fd5b50600436106100885760003560e01c8063e1259d9f1161005b578063e1259d9f146100ed578063e2152d7b146100f7578063e41515c614610115578063f2fde38b1461013157610088565b80632e1a7d4d1461008d578063715018a6146100a95780638da5cb5b146100b3578063ad3be301146100d1575b600080fd5b6100a760048036038101906100a29190610a7c565b61014d565b005b6100b1610243565b005b6100bb6102cb565b6040516100c89190610c8c565b60405180910390f35b6100eb60048036038101906100e69190610a40565b6102f4565b005b6100f5610460565b005b6100ff6104ec565b60405161010c9190610ca7565b60405180910390f35b61012f600480360381019061012a9190610a7c565b6105ab565b005b61014b60048036038101906101469190610a17565b6107bf565b005b6101556108b7565b73ffffffffffffffffffffffffffffffffffffffff166101736102cb565b73ffffffffffffffffffffffffffffffffffffffff16146101c9576040517f08c379a00000000000000000000000000000000000000000000000000000000081526004016101c090610d09565b60405180910390fd5b60003373ffffffffffffffffffffffffffffffffffffffff16826040516101ef90610c77565b60006040518083038185875af1925050503d806000811461022c576040519150601f19603f3d011682016040523d82523d6000602084013e610231565b606091505b505090508061023f57600080fd5b5050565b61024b6108b7565b73ffffffffffffffffffffffffffffffffffffffff166102696102cb565b73ffffffffffffffffffffffffffffffffffffffff16146102bf576040517f08c379a00000000000000000000000000000000000000000000000000000000081526004016102b690610d09565b60405180910390fd5b6102c960006108bf565b565b60008060009054906101000a900473ffffffffffffffffffffffffffffffffffffffff16905090565b6102fc6108b7565b73ffffffffffffffffffffffffffffffffffffffff1661031a6102cb565b73ffffffffffffffffffffffffffffffffffffffff1614610370576040517f08c379a000000000000000000000000000000000000000000000000000000000815260040161036790610d09565b60405180910390fd5b600081116103b3576040517f08c379a00000000000000000000000000000000000000000000000000000000081526004016103aa90610ce9565b60405180910390fd5b600260405180604001604052808473ffffffffffffffffffffffffffffffffffffffff16815260200183815250908060018154018082558091505060019003906000526020600020906002020160009091909190915060008201518160000160006101000a81548173ffffffffffffffffffffffffffffffffffffffff021916908373ffffffffffffffffffffffffffffffffffffffff1602179055506020820151816001015550505050565b6104686108b7565b73ffffffffffffffffffffffffffffffffffffffff166104866102cb565b73ffffffffffffffffffffffffffffffffffffffff16146104dc576040517f08c379a00000000000000000000000000000000000000000000000000000000081526004016104d390610d09565b60405180910390fd5b600260006104ea9190610983565b565b60606002805480602002602001604051908101604052809291908181526020016000905b828210156105a257838290600052602060002090600202016040518060400160405290816000820160009054906101000a900473ffffffffffffffffffffffffffffffffffffffff1673ffffffffffffffffffffffffffffffffffffffff1673ffffffffffffffffffffffffffffffffffffffff16815260200160018201548152505081526020019060010190610510565b50505050905090565b6105b36108b7565b73ffffffffffffffffffffffffffffffffffffffff166105d16102cb565b73ffffffffffffffffffffffffffffffffffffffff1614610627576040517f08c379a000000000000000000000000000000000000000000000000000000000815260040161061e90610d09565b60405180910390fd5b6002600160028054905061063b9190610d7e565b81548110610672577f4e487b7100000000000000000000000000000000000000000000000000000000600052603260045260246000fd5b9060005260206000209060020201600282815481106106ba577f4e487b7100000000000000000000000000000000000000000000000000000000600052603260045260246000fd5b90600052602060002090600202016000820160009054906101000a900473ffffffffffffffffffffffffffffffffffffffff168160000160006101000a81548173ffffffffffffffffffffffffffffffffffffffff021916908373ffffffffffffffffffffffffffffffffffffffff160217905550600182015481600101559050506002805480610774577f4e487b7100000000000000000000000000000000000000000000000000000000600052603160045260246000fd5b6001900381819060005260206000209060020201600080820160006101000a81549073ffffffffffffffffffffffffffffffffffffffff021916905560018201600090555050905550565b6107c76108b7565b73ffffffffffffffffffffffffffffffffffffffff166107e56102cb565b73ffffffffffffffffffffffffffffffffffffffff161461083b576040517f08c379a000000000000000000000000000000000000000000000000000000000815260040161083290610d09565b60405180910390fd5b600073ffffffffffffffffffffffffffffffffffffffff168173ffffffffffffffffffffffffffffffffffffffff1614156108ab576040517f08c379a00000000000000000000000000000000000000000000000000000000081526004016108a290610cc9565b60405180910390fd5b6108b4816108bf565b50565b600033905090565b60008060009054906101000a900473ffffffffffffffffffffffffffffffffffffffff169050816000806101000a81548173ffffffffffffffffffffffffffffffffffffffff021916908373ffffffffffffffffffffffffffffffffffffffff1602179055508173ffffffffffffffffffffffffffffffffffffffff168173ffffffffffffffffffffffffffffffffffffffff167f8be0079c531659141344cd1fd0a4f28419497f9722a3daafe3b4186f6b6457e060405160405180910390a35050565b50805460008255600202906000526020600020908101906109a491906109a7565b50565b5b808211156109e957600080820160006101000a81549073ffffffffffffffffffffffffffffffffffffffff02191690556001820160009055506002016109a8565b5090565b6000813590506109fc81610e1d565b92915050565b600081359050610a1181610e34565b92915050565b600060208284031215610a2957600080fd5b6000610a37848285016109ed565b91505092915050565b60008060408385031215610a5357600080fd5b6000610a61858286016109ed565b9250506020610a7285828601610a02565b9150509250929050565b600060208284031215610a8e57600080fd5b6000610a9c84828501610a02565b91505092915050565b6000610ab18383610c39565b60408301905092915050565b610ac681610db2565b82525050565b610ad581610db2565b82525050565b6000610ae682610d39565b610af08185610d51565b9350610afb83610d29565b8060005b83811015610b2c578151610b138882610aa5565b9750610b1e83610d44565b925050600181019050610aff565b5085935050505092915050565b6000610b46602683610d6d565b91507f4f776e61626c653a206e6577206f776e657220697320746865207a65726f206160008301527f64647265737300000000000000000000000000000000000000000000000000006020830152604082019050919050565b6000610bac601e83610d6d565b91507f506f696e7473206d7573742062652067726561746572207468616e20302e00006000830152602082019050919050565b6000610bec602083610d6d565b91507f4f776e61626c653a2063616c6c6572206973206e6f7420746865206f776e65726000830152602082019050919050565b6000610c2c600083610d62565b9150600082019050919050565b604082016000820151610c4f6000850182610abd565b506020820151610c626020850182610c68565b50505050565b610c7181610de4565b82525050565b6000610c8282610c1f565b9150819050919050565b6000602082019050610ca16000830184610acc565b92915050565b60006020820190508181036000830152610cc18184610adb565b905092915050565b60006020820190508181036000830152610ce281610b39565b9050919050565b60006020820190508181036000830152610d0281610b9f565b9050919050565b60006020820190508181036000830152610d2281610bdf565b9050919050565b6000819050602082019050919050565b600081519050919050565b6000602082019050919050565b600082825260208201905092915050565b600081905092915050565b600082825260208201905092915050565b6000610d8982610de4565b9150610d9483610de4565b925082821015610da757610da6610dee565b5b828203905092915050565b6000610dbd82610dc4565b9050919050565b600073ffffffffffffffffffffffffffffffffffffffff82169050919050565b6000819050919050565b7f4e487b7100000000000000000000000000000000000000000000000000000000600052601160045260246000fd5b610e2681610db2565b8114610e3157600080fd5b50565b610e3d81610de4565b8114610e4857600080fd5b5056fea26469706673582212203eee5f67042c8c61a17034d9997b2868219f844ffae5fd0a3bd0a156caa1ea5864736f6c63430008000033",
  "linkReferences": {},
  "deployedLinkReferences": {}
}