{
  "_format": "hh-sol-artifact-1",
  "contractName": "FeeTakers",
  "sourceName": "contracts/fee/FeeTakers.sol",
  "abi": [
    {
      "anonymous": false,
      "inputs": [
        {
          "indexed": false,
          "internalType": "address",
          "name": "to",
          "type": "address"
        },
        {
          "indexed": false,
          "internalType": "uint256",
          "name": "amount",
          "type": "uint256"
        }
      ],
      "name": "FeeSent",
      "type": "event"
    },
    {
      "anonymous": false,
      "inputs": [
        {
          "indexed": true,
          "internalType": "address",
          "name": "previousOwner",
          "type": "address"
        },
        {
          "indexed": true,
          "internalType": "address",
          "name": "newOwner",
          "type": "address"
        }
      ],
      "name": "OwnershipTransferred",
      "type": "event"
    },
    {
      "inputs": [
        {
          "internalType": "address",
          "name": "addr",
          "type": "address"
        },
        {
          "internalType": "uint256",
          "name": "points",
          "type": "uint256"
        }
      ],
      "name": "addToFeeTakers",
      "outputs": [],
      "stateMutability": "nonpayable",
      "type": "function"
    },
    {
      "inputs": [],
      "name": "deleteFeeTakers",
      "outputs": [],
      "stateMutability": "nonpayable",
      "type": "function"
    },
    {
      "inputs": [],
      "name": "getFeeTakers",
      "outputs": [
        {
          "components": [
            {
              "internalType": "address",
              "name": "addr",
              "type": "address"
            },
            {
              "internalType": "uint256",
              "name": "points",
              "type": "uint256"
            }
          ],
          "internalType": "struct FeeTakers.FeeTaker[]",
          "name": "",
          "type": "tuple[]"
        }
      ],
      "stateMutability": "view",
      "type": "function"
    },
    {
      "inputs": [],
      "name": "owner",
      "outputs": [
        {
          "internalType": "address",
          "name": "",
          "type": "address"
        }
      ],
      "stateMutability": "view",
      "type": "function"
    },
    {
      "inputs": [
        {
          "internalType": "uint256",
          "name": "index",
          "type": "uint256"
        }
      ],
      "name": "removeFromFeeTakers",
      "outputs": [],
      "stateMutability": "nonpayable",
      "type": "function"
    },
    {
      "inputs": [],
      "name": "renounceOwnership",
      "outputs": [],
      "stateMutability": "nonpayable",
      "type": "function"
    },
    {
      "inputs": [
        {
          "internalType": "address",
          "name": "newOwner",
          "type": "address"
        }
      ],
      "name": "transferOwnership",
      "outputs": [],
      "stateMutability": "nonpayable",
      "type": "function"
    }
  ],
  "bytecode": "0x608060405234801561001057600080fd5b5061002d61002261003960201b60201c565b61004160201b60201c565b60018081905550610105565b600033905090565b60008060009054906101000a900473ffffffffffffffffffffffffffffffffffffffff169050816000806101000a81548173ffffffffffffffffffffffffffffffffffffffff021916908373ffffffffffffffffffffffffffffffffffffffff1602179055508173ffffffffffffffffffffffffffffffffffffffff168173ffffffffffffffffffffffffffffffffffffffff167f8be0079c531659141344cd1fd0a4f28419497f9722a3daafe3b4186f6b6457e060405160405180910390a35050565b610d2a806101146000396000f3fe608060405234801561001057600080fd5b506004361061007d5760003560e01c8063e1259d9f1161005b578063e1259d9f146100c6578063e2152d7b146100d0578063e41515c6146100ee578063f2fde38b1461010a5761007d565b8063715018a6146100825780638da5cb5b1461008c578063ad3be301146100aa575b600080fd5b61008a610126565b005b6100946101ae565b6040516100a19190610b40565b60405180910390f35b6100c460048036038101906100bf9190610923565b6101d7565b005b6100ce610343565b005b6100d86103cf565b6040516100e59190610b5b565b60405180910390f35b6101086004803603810190610103919061095f565b61048e565b005b610124600480360381019061011f91906108fa565b6106a2565b005b61012e61079a565b73ffffffffffffffffffffffffffffffffffffffff1661014c6101ae565b73ffffffffffffffffffffffffffffffffffffffff16146101a2576040517f08c379a000000000000000000000000000000000000000000000000000000000815260040161019990610bbd565b60405180910390fd5b6101ac60006107a2565b565b60008060009054906101000a900473ffffffffffffffffffffffffffffffffffffffff16905090565b6101df61079a565b73ffffffffffffffffffffffffffffffffffffffff166101fd6101ae565b73ffffffffffffffffffffffffffffffffffffffff1614610253576040517f08c379a000000000000000000000000000000000000000000000000000000000815260040161024a90610bbd565b60405180910390fd5b60008111610296576040517f08c379a000000000000000000000000000000000000000000000000000000000815260040161028d90610b9d565b60405180910390fd5b600260405180604001604052808473ffffffffffffffffffffffffffffffffffffffff16815260200183815250908060018154018082558091505060019003906000526020600020906002020160009091909190915060008201518160000160006101000a81548173ffffffffffffffffffffffffffffffffffffffff021916908373ffffffffffffffffffffffffffffffffffffffff1602179055506020820151816001015550505050565b61034b61079a565b73ffffffffffffffffffffffffffffffffffffffff166103696101ae565b73ffffffffffffffffffffffffffffffffffffffff16146103bf576040517f08c379a00000000000000000000000000000000000000000000000000000000081526004016103b690610bbd565b60405180910390fd5b600260006103cd9190610866565b565b60606002805480602002602001604051908101604052809291908181526020016000905b8282101561048557838290600052602060002090600202016040518060400160405290816000820160009054906101000a900473ffffffffffffffffffffffffffffffffffffffff1673ffffffffffffffffffffffffffffffffffffffff1673ffffffffffffffffffffffffffffffffffffffff168152602001600182015481525050815260200190600101906103f3565b50505050905090565b61049661079a565b73ffffffffffffffffffffffffffffffffffffffff166104b46101ae565b73ffffffffffffffffffffffffffffffffffffffff161461050a576040517f08c379a000000000000000000000000000000000000000000000000000000000815260040161050190610bbd565b60405180910390fd5b6002600160028054905061051e9190610c27565b81548110610555577f4e487b7100000000000000000000000000000000000000000000000000000000600052603260045260246000fd5b90600052602060002090600202016002828154811061059d577f4e487b7100000000000000000000000000000000000000000000000000000000600052603260045260246000fd5b90600052602060002090600202016000820160009054906101000a900473ffffffffffffffffffffffffffffffffffffffff168160000160006101000a81548173ffffffffffffffffffffffffffffffffffffffff021916908373ffffffffffffffffffffffffffffffffffffffff160217905550600182015481600101559050506002805480610657577f4e487b7100000000000000000000000000000000000000000000000000000000600052603160045260246000fd5b6001900381819060005260206000209060020201600080820160006101000a81549073ffffffffffffffffffffffffffffffffffffffff021916905560018201600090555050905550565b6106aa61079a565b73ffffffffffffffffffffffffffffffffffffffff166106c86101ae565b73ffffffffffffffffffffffffffffffffffffffff161461071e576040517f08c379a000000000000000000000000000000000000000000000000000000000815260040161071590610bbd565b60405180910390fd5b600073ffffffffffffffffffffffffffffffffffffffff168173ffffffffffffffffffffffffffffffffffffffff16141561078e576040517f08c379a000000000000000000000000000000000000000000000000000000000815260040161078590610b7d565b60405180910390fd5b610797816107a2565b50565b600033905090565b60008060009054906101000a900473ffffffffffffffffffffffffffffffffffffffff169050816000806101000a81548173ffffffffffffffffffffffffffffffffffffffff021916908373ffffffffffffffffffffffffffffffffffffffff1602179055508173ffffffffffffffffffffffffffffffffffffffff168173ffffffffffffffffffffffffffffffffffffffff167f8be0079c531659141344cd1fd0a4f28419497f9722a3daafe3b4186f6b6457e060405160405180910390a35050565b5080546000825560020290600052602060002090810190610887919061088a565b50565b5b808211156108cc57600080820160006101000a81549073ffffffffffffffffffffffffffffffffffffffff021916905560018201600090555060020161088b565b5090565b6000813590506108df81610cc6565b92915050565b6000813590506108f481610cdd565b92915050565b60006020828403121561090c57600080fd5b600061091a848285016108d0565b91505092915050565b6000806040838503121561093657600080fd5b6000610944858286016108d0565b9250506020610955858286016108e5565b9150509250929050565b60006020828403121561097157600080fd5b600061097f848285016108e5565b91505092915050565b60006109948383610b02565b60408301905092915050565b6109a981610c5b565b82525050565b6109b881610c5b565b82525050565b60006109c982610bed565b6109d38185610c05565b93506109de83610bdd565b8060005b83811015610a0f5781516109f68882610988565b9750610a0183610bf8565b9250506001810190506109e2565b5085935050505092915050565b6000610a29602683610c16565b91507f4f776e61626c653a206e6577206f776e657220697320746865207a65726f206160008301527f64647265737300000000000000000000000000000000000000000000000000006020830152604082019050919050565b6000610a8f601e83610c16565b91507f506f696e7473206d7573742062652067726561746572207468616e20302e00006000830152602082019050919050565b6000610acf602083610c16565b91507f4f776e61626c653a2063616c6c6572206973206e6f7420746865206f776e65726000830152602082019050919050565b604082016000820151610b1860008501826109a0565b506020820151610b2b6020850182610b31565b50505050565b610b3a81610c8d565b82525050565b6000602082019050610b5560008301846109af565b92915050565b60006020820190508181036000830152610b7581846109be565b905092915050565b60006020820190508181036000830152610b9681610a1c565b9050919050565b60006020820190508181036000830152610bb681610a82565b9050919050565b60006020820190508181036000830152610bd681610ac2565b9050919050565b6000819050602082019050919050565b600081519050919050565b6000602082019050919050565b600082825260208201905092915050565b600082825260208201905092915050565b6000610c3282610c8d565b9150610c3d83610c8d565b925082821015610c5057610c4f610c97565b5b828203905092915050565b6000610c6682610c6d565b9050919050565b600073ffffffffffffffffffffffffffffffffffffffff82169050919050565b6000819050919050565b7f4e487b7100000000000000000000000000000000000000000000000000000000600052601160045260246000fd5b610ccf81610c5b565b8114610cda57600080fd5b50565b610ce681610c8d565b8114610cf157600080fd5b5056fea2646970667358221220c7c459d23efd0f481b303e76aa75952d1b79f7b1cf2a9d10c2c2dad6d913ce3564736f6c63430008000033",
  "linkReferences": {},
  "deployedLinkReferences": {}
}