{
  "_format": "hh-sol-artifact-1",
  "contractName": "FeeTakers",
  "sourceName": "contracts/fee/FeeTakers.sol",
  "abi": [
    {
      "anonymous": false,
      "inputs": [
        {
          "indexed": false,
          "internalType": "address",
          "name": "to",
          "type": "address"
        },
        {
          "indexed": false,
          "internalType": "uint256",
          "name": "amount",
          "type": "uint256"
        }
      ],
      "name": "FeeSent",
      "type": "event"
    },
    {
      "anonymous": false,
      "inputs": [
        {
          "indexed": true,
          "internalType": "address",
          "name": "previousOwner",
          "type": "address"
        },
        {
          "indexed": true,
          "internalType": "address",
          "name": "newOwner",
          "type": "address"
        }
      ],
      "name": "OwnershipTransferred",
      "type": "event"
    },
    {
      "inputs": [
        {
          "internalType": "address",
          "name": "addr",
          "type": "address"
        },
        {
          "internalType": "uint256",
          "name": "points",
          "type": "uint256"
        }
      ],
      "name": "addToFeeTakers",
      "outputs": [],
      "stateMutability": "nonpayable",
      "type": "function"
    },
    {
      "inputs": [],
      "name": "deleteFeeTakers",
      "outputs": [],
      "stateMutability": "nonpayable",
      "type": "function"
    },
    {
      "inputs": [],
      "name": "getFeeTakers",
      "outputs": [
        {
          "components": [
            {
              "internalType": "address",
              "name": "addr",
              "type": "address"
            },
            {
              "internalType": "uint256",
              "name": "points",
              "type": "uint256"
            }
          ],
          "internalType": "struct FeeTakers.FeeTaker[]",
          "name": "",
          "type": "tuple[]"
        }
      ],
      "stateMutability": "view",
      "type": "function"
    },
    {
      "inputs": [],
      "name": "owner",
      "outputs": [
        {
          "internalType": "address",
          "name": "",
          "type": "address"
        }
      ],
      "stateMutability": "view",
      "type": "function"
    },
    {
      "inputs": [
        {
          "internalType": "uint256",
          "name": "index",
          "type": "uint256"
        }
      ],
      "name": "removeFromFeeTakers",
      "outputs": [],
      "stateMutability": "nonpayable",
      "type": "function"
    },
    {
      "inputs": [],
      "name": "renounceOwnership",
      "outputs": [],
      "stateMutability": "nonpayable",
      "type": "function"
    },
    {
      "inputs": [
        {
          "internalType": "address",
          "name": "newOwner",
          "type": "address"
        }
      ],
      "name": "transferOwnership",
      "outputs": [],
      "stateMutability": "nonpayable",
      "type": "function"
    }
  ],
  "bytecode": "0x608060405234801561001057600080fd5b5061002d61002261003260201b60201c565b61003a60201b60201c565b6100fe565b600033905090565b60008060009054906101000a900473ffffffffffffffffffffffffffffffffffffffff169050816000806101000a81548173ffffffffffffffffffffffffffffffffffffffff021916908373ffffffffffffffffffffffffffffffffffffffff1602179055508173ffffffffffffffffffffffffffffffffffffffff168173ffffffffffffffffffffffffffffffffffffffff167f8be0079c531659141344cd1fd0a4f28419497f9722a3daafe3b4186f6b6457e060405160405180910390a35050565b610c858061010d6000396000f3fe608060405234801561001057600080fd5b506004361061007d5760003560e01c8063e1259d9f1161005b578063e1259d9f146100c6578063e2152d7b146100d0578063e41515c6146100ee578063f2fde38b1461010a5761007d565b8063715018a6146100825780638da5cb5b1461008c578063ad3be301146100aa575b600080fd5b61008a610126565b005b6100946101ae565b6040516100a19190610abb565b60405180910390f35b6100c460048036038101906100bf91906108de565b6101d7565b005b6100ce610300565b005b6100d861038c565b6040516100e59190610ad6565b60405180910390f35b6101086004803603810190610103919061091a565b61044b565b005b610124600480360381019061011f91906108b5565b61065d565b005b61012e610755565b73ffffffffffffffffffffffffffffffffffffffff1661014c6101ae565b73ffffffffffffffffffffffffffffffffffffffff16146101a2576040517f08c379a000000000000000000000000000000000000000000000000000000000815260040161019990610b18565b60405180910390fd5b6101ac600061075d565b565b60008060009054906101000a900473ffffffffffffffffffffffffffffffffffffffff16905090565b6101df610755565b73ffffffffffffffffffffffffffffffffffffffff166101fd6101ae565b73ffffffffffffffffffffffffffffffffffffffff1614610253576040517f08c379a000000000000000000000000000000000000000000000000000000000815260040161024a90610b18565b60405180910390fd5b600160405180604001604052808473ffffffffffffffffffffffffffffffffffffffff16815260200183815250908060018154018082558091505060019003906000526020600020906002020160009091909190915060008201518160000160006101000a81548173ffffffffffffffffffffffffffffffffffffffff021916908373ffffffffffffffffffffffffffffffffffffffff1602179055506020820151816001015550505050565b610308610755565b73ffffffffffffffffffffffffffffffffffffffff166103266101ae565b73ffffffffffffffffffffffffffffffffffffffff161461037c576040517f08c379a000000000000000000000000000000000000000000000000000000000815260040161037390610b18565b60405180910390fd5b6001600061038a9190610821565b565b60606001805480602002602001604051908101604052809291908181526020016000905b8282101561044257838290600052602060002090600202016040518060400160405290816000820160009054906101000a900473ffffffffffffffffffffffffffffffffffffffff1673ffffffffffffffffffffffffffffffffffffffff1673ffffffffffffffffffffffffffffffffffffffff168152602001600182015481525050815260200190600101906103b0565b50505050905090565b610453610755565b73ffffffffffffffffffffffffffffffffffffffff166104716101ae565b73ffffffffffffffffffffffffffffffffffffffff16146104c7576040517f08c379a00000000000000000000000000000000000000000000000000000000081526004016104be90610b18565b60405180910390fd5b60018080805490506104d99190610b82565b81548110610510577f4e487b7100000000000000000000000000000000000000000000000000000000600052603260045260246000fd5b906000526020600020906002020160018281548110610558577f4e487b7100000000000000000000000000000000000000000000000000000000600052603260045260246000fd5b90600052602060002090600202016000820160009054906101000a900473ffffffffffffffffffffffffffffffffffffffff168160000160006101000a81548173ffffffffffffffffffffffffffffffffffffffff021916908373ffffffffffffffffffffffffffffffffffffffff160217905550600182015481600101559050506001805480610612577f4e487b7100000000000000000000000000000000000000000000000000000000600052603160045260246000fd5b6001900381819060005260206000209060020201600080820160006101000a81549073ffffffffffffffffffffffffffffffffffffffff021916905560018201600090555050905550565b610665610755565b73ffffffffffffffffffffffffffffffffffffffff166106836101ae565b73ffffffffffffffffffffffffffffffffffffffff16146106d9576040517f08c379a00000000000000000000000000000000000000000000000000000000081526004016106d090610b18565b60405180910390fd5b600073ffffffffffffffffffffffffffffffffffffffff168173ffffffffffffffffffffffffffffffffffffffff161415610749576040517f08c379a000000000000000000000000000000000000000000000000000000000815260040161074090610af8565b60405180910390fd5b6107528161075d565b50565b600033905090565b60008060009054906101000a900473ffffffffffffffffffffffffffffffffffffffff169050816000806101000a81548173ffffffffffffffffffffffffffffffffffffffff021916908373ffffffffffffffffffffffffffffffffffffffff1602179055508173ffffffffffffffffffffffffffffffffffffffff168173ffffffffffffffffffffffffffffffffffffffff167f8be0079c531659141344cd1fd0a4f28419497f9722a3daafe3b4186f6b6457e060405160405180910390a35050565b50805460008255600202906000526020600020908101906108429190610845565b50565b5b8082111561088757600080820160006101000a81549073ffffffffffffffffffffffffffffffffffffffff0219169055600182016000905550600201610846565b5090565b60008135905061089a81610c21565b92915050565b6000813590506108af81610c38565b92915050565b6000602082840312156108c757600080fd5b60006108d58482850161088b565b91505092915050565b600080604083850312156108f157600080fd5b60006108ff8582860161088b565b9250506020610910858286016108a0565b9150509250929050565b60006020828403121561092c57600080fd5b600061093a848285016108a0565b91505092915050565b600061094f8383610a7d565b60408301905092915050565b61096481610bb6565b82525050565b61097381610bb6565b82525050565b600061098482610b48565b61098e8185610b60565b935061099983610b38565b8060005b838110156109ca5781516109b18882610943565b97506109bc83610b53565b92505060018101905061099d565b5085935050505092915050565b60006109e4602683610b71565b91507f4f776e61626c653a206e6577206f776e657220697320746865207a65726f206160008301527f64647265737300000000000000000000000000000000000000000000000000006020830152604082019050919050565b6000610a4a602083610b71565b91507f4f776e61626c653a2063616c6c6572206973206e6f7420746865206f776e65726000830152602082019050919050565b604082016000820151610a93600085018261095b565b506020820151610aa66020850182610aac565b50505050565b610ab581610be8565b82525050565b6000602082019050610ad0600083018461096a565b92915050565b60006020820190508181036000830152610af08184610979565b905092915050565b60006020820190508181036000830152610b11816109d7565b9050919050565b60006020820190508181036000830152610b3181610a3d565b9050919050565b6000819050602082019050919050565b600081519050919050565b6000602082019050919050565b600082825260208201905092915050565b600082825260208201905092915050565b6000610b8d82610be8565b9150610b9883610be8565b925082821015610bab57610baa610bf2565b5b828203905092915050565b6000610bc182610bc8565b9050919050565b600073ffffffffffffffffffffffffffffffffffffffff82169050919050565b6000819050919050565b7f4e487b7100000000000000000000000000000000000000000000000000000000600052601160045260246000fd5b610c2a81610bb6565b8114610c3557600080fd5b50565b610c4181610be8565b8114610c4c57600080fd5b5056fea2646970667358221220e0109b9d4b86c261357b6023620443c0e74c0d9183e64019fb5a4554423c7ebc64736f6c63430008000033",
  "linkReferences": {},
  "deployedLinkReferences": {}
}