{
  "_format": "hh-sol-artifact-1",
  "contractName": "Withdraw",
  "sourceName": "contracts/utils/Withdraw.sol",
  "abi": [
    {
      "anonymous": false,
      "inputs": [
        {
          "indexed": true,
          "internalType": "bytes32",
          "name": "role",
          "type": "bytes32"
        },
        {
          "indexed": true,
          "internalType": "bytes32",
          "name": "previousAdminRole",
          "type": "bytes32"
        },
        {
          "indexed": true,
          "internalType": "bytes32",
          "name": "newAdminRole",
          "type": "bytes32"
        }
      ],
      "name": "RoleAdminChanged",
      "type": "event"
    },
    {
      "anonymous": false,
      "inputs": [
        {
          "indexed": true,
          "internalType": "bytes32",
          "name": "role",
          "type": "bytes32"
        },
        {
          "indexed": true,
          "internalType": "address",
          "name": "account",
          "type": "address"
        },
        {
          "indexed": true,
          "internalType": "address",
          "name": "sender",
          "type": "address"
        }
      ],
      "name": "RoleGranted",
      "type": "event"
    },
    {
      "anonymous": false,
      "inputs": [
        {
          "indexed": true,
          "internalType": "bytes32",
          "name": "role",
          "type": "bytes32"
        },
        {
          "indexed": true,
          "internalType": "address",
          "name": "account",
          "type": "address"
        },
        {
          "indexed": true,
          "internalType": "address",
          "name": "sender",
          "type": "address"
        }
      ],
      "name": "RoleRevoked",
      "type": "event"
    },
    {
      "inputs": [],
      "name": "DEFAULT_ADMIN_ROLE",
      "outputs": [
        {
          "internalType": "bytes32",
          "name": "",
          "type": "bytes32"
        }
      ],
      "stateMutability": "view",
      "type": "function"
    },
    {
      "inputs": [],
      "name": "WITHDRAW_ROLE",
      "outputs": [
        {
          "internalType": "bytes32",
          "name": "",
          "type": "bytes32"
        }
      ],
      "stateMutability": "view",
      "type": "function"
    },
    {
      "inputs": [
        {
          "internalType": "bytes32",
          "name": "role",
          "type": "bytes32"
        }
      ],
      "name": "getRoleAdmin",
      "outputs": [
        {
          "internalType": "bytes32",
          "name": "",
          "type": "bytes32"
        }
      ],
      "stateMutability": "view",
      "type": "function"
    },
    {
      "inputs": [
        {
          "internalType": "bytes32",
          "name": "role",
          "type": "bytes32"
        },
        {
          "internalType": "address",
          "name": "account",
          "type": "address"
        }
      ],
      "name": "grantRole",
      "outputs": [],
      "stateMutability": "nonpayable",
      "type": "function"
    },
    {
      "inputs": [
        {
          "internalType": "bytes32",
          "name": "role",
          "type": "bytes32"
        },
        {
          "internalType": "address",
          "name": "account",
          "type": "address"
        }
      ],
      "name": "hasRole",
      "outputs": [
        {
          "internalType": "bool",
          "name": "",
          "type": "bool"
        }
      ],
      "stateMutability": "view",
      "type": "function"
    },
    {
      "inputs": [
        {
          "internalType": "bytes32",
          "name": "role",
          "type": "bytes32"
        },
        {
          "internalType": "address",
          "name": "account",
          "type": "address"
        }
      ],
      "name": "renounceRole",
      "outputs": [],
      "stateMutability": "nonpayable",
      "type": "function"
    },
    {
      "inputs": [
        {
          "internalType": "bytes32",
          "name": "role",
          "type": "bytes32"
        },
        {
          "internalType": "address",
          "name": "account",
          "type": "address"
        }
      ],
      "name": "revokeRole",
      "outputs": [],
      "stateMutability": "nonpayable",
      "type": "function"
    },
    {
      "inputs": [
        {
          "internalType": "bytes4",
          "name": "interfaceId",
          "type": "bytes4"
        }
      ],
      "name": "supportsInterface",
      "outputs": [
        {
          "internalType": "bool",
          "name": "",
          "type": "bool"
        }
      ],
      "stateMutability": "view",
      "type": "function"
    },
    {
      "inputs": [
        {
          "internalType": "address",
          "name": "to",
          "type": "address"
        },
        {
          "internalType": "uint256",
          "name": "value",
          "type": "uint256"
        }
      ],
      "name": "withdraw",
      "outputs": [],
      "stateMutability": "nonpayable",
      "type": "function"
    }
  ],
  "bytecode": "0x60806040527f5d8e12c39142ff96d79d04d15d1ba1269e4fe57bb9d26f43523628b34ba108ec60015534801561003457600080fd5b5061106f806100446000396000f3fe608060405234801561001057600080fd5b50600436106100935760003560e01c806391d148541161006657806391d1485414610130578063a217fddf14610160578063d547741f1461017e578063e02023a11461019a578063f3fef3a3146101b857610093565b806301ffc9a714610098578063248a9ca3146100c85780632f2ff15d146100f857806336568abe14610114575b600080fd5b6100b260048036038101906100ad9190610b08565b6101d4565b6040516100bf9190610d48565b60405180910390f35b6100e260048036038101906100dd9190610aa3565b61024e565b6040516100ef9190610d63565b60405180910390f35b610112600480360381019061010d9190610acc565b61026d565b005b61012e60048036038101906101299190610acc565b610296565b005b61014a60048036038101906101459190610acc565b610319565b6040516101579190610d48565b60405180910390f35b610168610383565b6040516101759190610d63565b60405180910390f35b61019860048036038101906101939190610acc565b61038a565b005b6101a26103b3565b6040516101af9190610d63565b60405180910390f35b6101d260048036038101906101cd9190610a67565b6103b9565b005b60007f7965db0b000000000000000000000000000000000000000000000000000000007bffffffffffffffffffffffffffffffffffffffffffffffffffffffff1916827bffffffffffffffffffffffffffffffffffffffffffffffffffffffff19161480610247575061024682610449565b5b9050919050565b6000806000838152602001908152602001600020600101549050919050565b6102768261024e565b610287816102826104b3565b6104bb565b6102918383610558565b505050565b61029e6104b3565b73ffffffffffffffffffffffffffffffffffffffff168173ffffffffffffffffffffffffffffffffffffffff161461030b576040517f08c379a000000000000000000000000000000000000000000000000000000000815260040161030290610dc0565b60405180910390fd5b6103158282610638565b5050565b600080600084815260200190815260200160002060000160008373ffffffffffffffffffffffffffffffffffffffff1673ffffffffffffffffffffffffffffffffffffffff16815260200190815260200160002060009054906101000a900460ff16905092915050565b6000801b81565b6103938261024e565b6103a48161039f6104b3565b6104bb565b6103ae8383610638565b505050565b60015481565b6001546103cd816103c86104b3565b6104bb565b60008373ffffffffffffffffffffffffffffffffffffffff16836040516103f390610cf9565b60006040518083038185875af1925050503d8060008114610430576040519150601f19603f3d011682016040523d82523d6000602084013e610435565b606091505b505090508061044357600080fd5b50505050565b60007f01ffc9a7000000000000000000000000000000000000000000000000000000007bffffffffffffffffffffffffffffffffffffffffffffffffffffffff1916827bffffffffffffffffffffffffffffffffffffffffffffffffffffffff1916149050919050565b600033905090565b6104c58282610319565b610554576104ea8173ffffffffffffffffffffffffffffffffffffffff166014610719565b6104f88360001c6020610719565b604051602001610509929190610d0e565b6040516020818303038152906040526040517f08c379a000000000000000000000000000000000000000000000000000000000815260040161054b9190610d7e565b60405180910390fd5b5050565b6105628282610319565b61063457600160008084815260200190815260200160002060000160008373ffffffffffffffffffffffffffffffffffffffff1673ffffffffffffffffffffffffffffffffffffffff16815260200190815260200160002060006101000a81548160ff0219169083151502179055506105d96104b3565b73ffffffffffffffffffffffffffffffffffffffff168173ffffffffffffffffffffffffffffffffffffffff16837f2f8788117e7eff1d82e926ec794901d17c78024a50270940304540a733656f0d60405160405180910390a45b5050565b6106428282610319565b1561071557600080600084815260200190815260200160002060000160008373ffffffffffffffffffffffffffffffffffffffff1673ffffffffffffffffffffffffffffffffffffffff16815260200190815260200160002060006101000a81548160ff0219169083151502179055506106ba6104b3565b73ffffffffffffffffffffffffffffffffffffffff168173ffffffffffffffffffffffffffffffffffffffff16837ff6391f5c32d9c69d2a47ea670b442974b53935d1edc7fd64eb21e047a839171b60405160405180910390a45b5050565b60606000600283600261072c9190610e68565b6107369190610e12565b67ffffffffffffffff811115610775577f4e487b7100000000000000000000000000000000000000000000000000000000600052604160045260246000fd5b6040519080825280601f01601f1916602001820160405280156107a75781602001600182028036833780820191505090505b5090507f300000000000000000000000000000000000000000000000000000000000000081600081518110610805577f4e487b7100000000000000000000000000000000000000000000000000000000600052603260045260246000fd5b60200101907effffffffffffffffffffffffffffffffffffffffffffffffffffffffffffff1916908160001a9053507f78000000000000000000000000000000000000000000000000000000000000008160018151811061088f577f4e487b7100000000000000000000000000000000000000000000000000000000600052603260045260246000fd5b60200101907effffffffffffffffffffffffffffffffffffffffffffffffffffffffffffff1916908160001a905350600060018460026108cf9190610e68565b6108d99190610e12565b90505b60018111156109c5577f3031323334353637383961626364656600000000000000000000000000000000600f861660108110610941577f4e487b7100000000000000000000000000000000000000000000000000000000600052603260045260246000fd5b1a60f81b82828151811061097e577f4e487b7100000000000000000000000000000000000000000000000000000000600052603260045260246000fd5b60200101907effffffffffffffffffffffffffffffffffffffffffffffffffffffffffffff1916908160001a905350600485901c9450806109be90610f73565b90506108dc565b5060008414610a09576040517f08c379a0000000000000000000000000000000000000000000000000000000008152600401610a0090610da0565b60405180910390fd5b8091505092915050565b600081359050610a2281610fdd565b92915050565b600081359050610a3781610ff4565b92915050565b600081359050610a4c8161100b565b92915050565b600081359050610a6181611022565b92915050565b60008060408385031215610a7a57600080fd5b6000610a8885828601610a13565b9250506020610a9985828601610a52565b9150509250929050565b600060208284031215610ab557600080fd5b6000610ac384828501610a28565b91505092915050565b60008060408385031215610adf57600080fd5b6000610aed85828601610a28565b9250506020610afe85828601610a13565b9150509250929050565b600060208284031215610b1a57600080fd5b6000610b2884828501610a3d565b91505092915050565b610b3a81610ed4565b82525050565b610b4981610ee0565b82525050565b6000610b5a82610de0565b610b648185610df6565b9350610b74818560208601610f40565b610b7d81610fcc565b840191505092915050565b6000610b9382610de0565b610b9d8185610e07565b9350610bad818560208601610f40565b80840191505092915050565b6000610bc6602083610df6565b91507f537472696e67733a20686578206c656e67746820696e73756666696369656e746000830152602082019050919050565b6000610c06600083610deb565b9150600082019050919050565b6000610c20601783610e07565b91507f416363657373436f6e74726f6c3a206163636f756e74200000000000000000006000830152601782019050919050565b6000610c60601183610e07565b91507f206973206d697373696e6720726f6c65200000000000000000000000000000006000830152601182019050919050565b6000610ca0602f83610df6565b91507f416363657373436f6e74726f6c3a2063616e206f6e6c792072656e6f756e636560008301527f20726f6c657320666f722073656c6600000000000000000000000000000000006020830152604082019050919050565b6000610d0482610bf9565b9150819050919050565b6000610d1982610c13565b9150610d258285610b88565b9150610d3082610c53565b9150610d3c8284610b88565b91508190509392505050565b6000602082019050610d5d6000830184610b31565b92915050565b6000602082019050610d786000830184610b40565b92915050565b60006020820190508181036000830152610d988184610b4f565b905092915050565b60006020820190508181036000830152610db981610bb9565b9050919050565b60006020820190508181036000830152610dd981610c93565b9050919050565b600081519050919050565b600081905092915050565b600082825260208201905092915050565b600081905092915050565b6000610e1d82610f36565b9150610e2883610f36565b9250827fffffffffffffffffffffffffffffffffffffffffffffffffffffffffffffffff03821115610e5d57610e5c610f9d565b5b828201905092915050565b6000610e7382610f36565b9150610e7e83610f36565b9250817fffffffffffffffffffffffffffffffffffffffffffffffffffffffffffffffff0483118215151615610eb757610eb6610f9d565b5b828202905092915050565b6000610ecd82610f16565b9050919050565b60008115159050919050565b6000819050919050565b60007fffffffff0000000000000000000000000000000000000000000000000000000082169050919050565b600073ffffffffffffffffffffffffffffffffffffffff82169050919050565b6000819050919050565b60005b83811015610f5e578082015181840152602081019050610f43565b83811115610f6d576000848401525b50505050565b6000610f7e82610f36565b91506000821415610f9257610f91610f9d565b5b600182039050919050565b7f4e487b7100000000000000000000000000000000000000000000000000000000600052601160045260246000fd5b6000601f19601f8301169050919050565b610fe681610ec2565b8114610ff157600080fd5b50565b610ffd81610ee0565b811461100857600080fd5b50565b61101481610eea565b811461101f57600080fd5b50565b61102b81610f36565b811461103657600080fd5b5056fea264697066735822122069d0d241ee633626009ca472283db24739f205d066ef2a4567fb6936c804fbaf64736f6c63430008000033",
  "linkReferences": {},
  "deployedLinkReferences": {}
}