{
  "_format": "hh-sol-artifact-1",
  "contractName": "WithdrawERC20",
  "sourceName": "contracts/utils/WithdrawERC20.sol",
  "abi": [
    {
      "anonymous": false,
      "inputs": [
        {
          "indexed": true,
          "internalType": "bytes32",
          "name": "role",
          "type": "bytes32"
        },
        {
          "indexed": true,
          "internalType": "bytes32",
          "name": "previousAdminRole",
          "type": "bytes32"
        },
        {
          "indexed": true,
          "internalType": "bytes32",
          "name": "newAdminRole",
          "type": "bytes32"
        }
      ],
      "name": "RoleAdminChanged",
      "type": "event"
    },
    {
      "anonymous": false,
      "inputs": [
        {
          "indexed": true,
          "internalType": "bytes32",
          "name": "role",
          "type": "bytes32"
        },
        {
          "indexed": true,
          "internalType": "address",
          "name": "account",
          "type": "address"
        },
        {
          "indexed": true,
          "internalType": "address",
          "name": "sender",
          "type": "address"
        }
      ],
      "name": "RoleGranted",
      "type": "event"
    },
    {
      "anonymous": false,
      "inputs": [
        {
          "indexed": true,
          "internalType": "bytes32",
          "name": "role",
          "type": "bytes32"
        },
        {
          "indexed": true,
          "internalType": "address",
          "name": "account",
          "type": "address"
        },
        {
          "indexed": true,
          "internalType": "address",
          "name": "sender",
          "type": "address"
        }
      ],
      "name": "RoleRevoked",
      "type": "event"
    },
    {
      "inputs": [],
      "name": "DEFAULT_ADMIN_ROLE",
      "outputs": [
        {
          "internalType": "bytes32",
          "name": "",
          "type": "bytes32"
        }
      ],
      "stateMutability": "view",
      "type": "function"
    },
    {
      "inputs": [],
      "name": "WITHDRAW_ERC20_ROLE",
      "outputs": [
        {
          "internalType": "bytes32",
          "name": "",
          "type": "bytes32"
        }
      ],
      "stateMutability": "view",
      "type": "function"
    },
    {
      "inputs": [
        {
          "internalType": "bytes32",
          "name": "role",
          "type": "bytes32"
        }
      ],
      "name": "getRoleAdmin",
      "outputs": [
        {
          "internalType": "bytes32",
          "name": "",
          "type": "bytes32"
        }
      ],
      "stateMutability": "view",
      "type": "function"
    },
    {
      "inputs": [
        {
          "internalType": "bytes32",
          "name": "role",
          "type": "bytes32"
        },
        {
          "internalType": "address",
          "name": "account",
          "type": "address"
        }
      ],
      "name": "grantRole",
      "outputs": [],
      "stateMutability": "nonpayable",
      "type": "function"
    },
    {
      "inputs": [
        {
          "internalType": "bytes32",
          "name": "role",
          "type": "bytes32"
        },
        {
          "internalType": "address",
          "name": "account",
          "type": "address"
        }
      ],
      "name": "hasRole",
      "outputs": [
        {
          "internalType": "bool",
          "name": "",
          "type": "bool"
        }
      ],
      "stateMutability": "view",
      "type": "function"
    },
    {
      "inputs": [
        {
          "internalType": "bytes32",
          "name": "role",
          "type": "bytes32"
        },
        {
          "internalType": "address",
          "name": "account",
          "type": "address"
        }
      ],
      "name": "renounceRole",
      "outputs": [],
      "stateMutability": "nonpayable",
      "type": "function"
    },
    {
      "inputs": [
        {
          "internalType": "bytes32",
          "name": "role",
          "type": "bytes32"
        },
        {
          "internalType": "address",
          "name": "account",
          "type": "address"
        }
      ],
      "name": "revokeRole",
      "outputs": [],
      "stateMutability": "nonpayable",
      "type": "function"
    },
    {
      "inputs": [
        {
          "internalType": "bytes4",
          "name": "interfaceId",
          "type": "bytes4"
        }
      ],
      "name": "supportsInterface",
      "outputs": [
        {
          "internalType": "bool",
          "name": "",
          "type": "bool"
        }
      ],
      "stateMutability": "view",
      "type": "function"
    },
    {
      "inputs": [
        {
          "internalType": "contract IERC20",
          "name": "token",
          "type": "address"
        },
        {
          "internalType": "address",
          "name": "to",
          "type": "address"
        },
        {
          "internalType": "uint256",
          "name": "value",
          "type": "uint256"
        }
      ],
      "name": "withdrawERC20",
      "outputs": [],
      "stateMutability": "nonpayable",
      "type": "function"
    }
  ],
  "bytecode": "0x60806040527f62cc3a055ee9a4faf86eaedd8044238d9703f763af1c6f4206f17b2dbbac7d0660015534801561003457600080fd5b5061113a806100446000396000f3fe608060405234801561001057600080fd5b50600436106100935760003560e01c806344004cc11161006657806344004cc114610130578063623fa2c41461014c57806391d148541461016a578063a217fddf1461019a578063d547741f146101b857610093565b806301ffc9a714610098578063248a9ca3146100c85780632f2ff15d146100f857806336568abe14610114575b600080fd5b6100b260048036038101906100ad9190610b37565b6101d4565b6040516100bf9190610dde565b60405180910390f35b6100e260048036038101906100dd9190610ad2565b61024e565b6040516100ef9190610df9565b60405180910390f35b610112600480360381019061010d9190610afb565b61026d565b005b61012e60048036038101906101299190610afb565b610296565b005b61014a60048036038101906101459190610b60565b610319565b005b6101546103c1565b6040516101619190610df9565b60405180910390f35b610184600480360381019061017f9190610afb565b6103c7565b6040516101919190610dde565b60405180910390f35b6101a2610431565b6040516101af9190610df9565b60405180910390f35b6101d260048036038101906101cd9190610afb565b610438565b005b60007f7965db0b000000000000000000000000000000000000000000000000000000007bffffffffffffffffffffffffffffffffffffffffffffffffffffffff1916827bffffffffffffffffffffffffffffffffffffffffffffffffffffffff19161480610247575061024682610461565b5b9050919050565b6000806000838152602001908152602001600020600101549050919050565b6102768261024e565b610287816102826104cb565b6104d3565b6102918383610570565b505050565b61029e6104cb565b73ffffffffffffffffffffffffffffffffffffffff168173ffffffffffffffffffffffffffffffffffffffff161461030b576040517f08c379a000000000000000000000000000000000000000000000000000000000815260040161030290610e56565b60405180910390fd5b6103158282610650565b5050565b60015461032d816103286104cb565b6104d3565b8373ffffffffffffffffffffffffffffffffffffffff1663a9059cbb84846040518363ffffffff1660e01b8152600401610368929190610db5565b602060405180830381600087803b15801561038257600080fd5b505af1158015610396573d6000803e3d6000fd5b505050506040513d601f19601f820116820180604052508101906103ba9190610aa9565b5050505050565b60015481565b600080600084815260200190815260200160002060000160008373ffffffffffffffffffffffffffffffffffffffff1673ffffffffffffffffffffffffffffffffffffffff16815260200190815260200160002060009054906101000a900460ff16905092915050565b6000801b81565b6104418261024e565b6104528161044d6104cb565b6104d3565b61045c8383610650565b505050565b60007f01ffc9a7000000000000000000000000000000000000000000000000000000007bffffffffffffffffffffffffffffffffffffffffffffffffffffffff1916827bffffffffffffffffffffffffffffffffffffffffffffffffffffffff1916149050919050565b600033905090565b6104dd82826103c7565b61056c576105028173ffffffffffffffffffffffffffffffffffffffff166014610731565b6105108360001c6020610731565b604051602001610521929190610d7b565b6040516020818303038152906040526040517f08c379a00000000000000000000000000000000000000000000000000000000081526004016105639190610e14565b60405180910390fd5b5050565b61057a82826103c7565b61064c57600160008084815260200190815260200160002060000160008373ffffffffffffffffffffffffffffffffffffffff1673ffffffffffffffffffffffffffffffffffffffff16815260200190815260200160002060006101000a81548160ff0219169083151502179055506105f16104cb565b73ffffffffffffffffffffffffffffffffffffffff168173ffffffffffffffffffffffffffffffffffffffff16837f2f8788117e7eff1d82e926ec794901d17c78024a50270940304540a733656f0d60405160405180910390a45b5050565b61065a82826103c7565b1561072d57600080600084815260200190815260200160002060000160008373ffffffffffffffffffffffffffffffffffffffff1673ffffffffffffffffffffffffffffffffffffffff16815260200190815260200160002060006101000a81548160ff0219169083151502179055506106d26104cb565b73ffffffffffffffffffffffffffffffffffffffff168173ffffffffffffffffffffffffffffffffffffffff16837ff6391f5c32d9c69d2a47ea670b442974b53935d1edc7fd64eb21e047a839171b60405160405180910390a45b5050565b6060600060028360026107449190610ef3565b61074e9190610e9d565b67ffffffffffffffff81111561078d577f4e487b7100000000000000000000000000000000000000000000000000000000600052604160045260246000fd5b6040519080825280601f01601f1916602001820160405280156107bf5781602001600182028036833780820191505090505b5090507f30000000000000000000000000000000000000000000000000000000000000008160008151811061081d577f4e487b7100000000000000000000000000000000000000000000000000000000600052603260045260246000fd5b60200101907effffffffffffffffffffffffffffffffffffffffffffffffffffffffffffff1916908160001a9053507f7800000000000000000000000000000000000000000000000000000000000000816001815181106108a7577f4e487b7100000000000000000000000000000000000000000000000000000000600052603260045260246000fd5b60200101907effffffffffffffffffffffffffffffffffffffffffffffffffffffffffffff1916908160001a905350600060018460026108e79190610ef3565b6108f19190610e9d565b90505b60018111156109dd577f3031323334353637383961626364656600000000000000000000000000000000600f861660108110610959577f4e487b7100000000000000000000000000000000000000000000000000000000600052603260045260246000fd5b1a60f81b828281518110610996577f4e487b7100000000000000000000000000000000000000000000000000000000600052603260045260246000fd5b60200101907effffffffffffffffffffffffffffffffffffffffffffffffffffffffffffff1916908160001a905350600485901c9450806109d690611010565b90506108f4565b5060008414610a21576040517f08c379a0000000000000000000000000000000000000000000000000000000008152600401610a1890610e36565b60405180910390fd5b8091505092915050565b600081359050610a3a8161107a565b92915050565b600081519050610a4f81611091565b92915050565b600081359050610a64816110a8565b92915050565b600081359050610a79816110bf565b92915050565b600081359050610a8e816110d6565b92915050565b600081359050610aa3816110ed565b92915050565b600060208284031215610abb57600080fd5b6000610ac984828501610a40565b91505092915050565b600060208284031215610ae457600080fd5b6000610af284828501610a55565b91505092915050565b60008060408385031215610b0e57600080fd5b6000610b1c85828601610a55565b9250506020610b2d85828601610a2b565b9150509250929050565b600060208284031215610b4957600080fd5b6000610b5784828501610a6a565b91505092915050565b600080600060608486031215610b7557600080fd5b6000610b8386828701610a7f565b9350506020610b9486828701610a2b565b9250506040610ba586828701610a94565b9150509250925092565b610bb881610f4d565b82525050565b610bc781610f5f565b82525050565b610bd681610f6b565b82525050565b6000610be782610e76565b610bf18185610e81565b9350610c01818560208601610fdd565b610c0a81611069565b840191505092915050565b6000610c2082610e76565b610c2a8185610e92565b9350610c3a818560208601610fdd565b80840191505092915050565b6000610c53602083610e81565b91507f537472696e67733a20686578206c656e67746820696e73756666696369656e746000830152602082019050919050565b6000610c93601783610e92565b91507f416363657373436f6e74726f6c3a206163636f756e74200000000000000000006000830152601782019050919050565b6000610cd3601183610e92565b91507f206973206d697373696e6720726f6c65200000000000000000000000000000006000830152601182019050919050565b6000610d13602f83610e81565b91507f416363657373436f6e74726f6c3a2063616e206f6e6c792072656e6f756e636560008301527f20726f6c657320666f722073656c6600000000000000000000000000000000006020830152604082019050919050565b610d7581610fd3565b82525050565b6000610d8682610c86565b9150610d928285610c15565b9150610d9d82610cc6565b9150610da98284610c15565b91508190509392505050565b6000604082019050610dca6000830185610baf565b610dd76020830184610d6c565b9392505050565b6000602082019050610df36000830184610bbe565b92915050565b6000602082019050610e0e6000830184610bcd565b92915050565b60006020820190508181036000830152610e2e8184610bdc565b905092915050565b60006020820190508181036000830152610e4f81610c46565b9050919050565b60006020820190508181036000830152610e6f81610d06565b9050919050565b600081519050919050565b600082825260208201905092915050565b600081905092915050565b6000610ea882610fd3565b9150610eb383610fd3565b9250827fffffffffffffffffffffffffffffffffffffffffffffffffffffffffffffffff03821115610ee857610ee761103a565b5b828201905092915050565b6000610efe82610fd3565b9150610f0983610fd3565b9250817fffffffffffffffffffffffffffffffffffffffffffffffffffffffffffffffff0483118215151615610f4257610f4161103a565b5b828202905092915050565b6000610f5882610fb3565b9050919050565b60008115159050919050565b6000819050919050565b60007fffffffff0000000000000000000000000000000000000000000000000000000082169050919050565b6000610fac82610f4d565b9050919050565b600073ffffffffffffffffffffffffffffffffffffffff82169050919050565b6000819050919050565b60005b83811015610ffb578082015181840152602081019050610fe0565b8381111561100a576000848401525b50505050565b600061101b82610fd3565b9150600082141561102f5761102e61103a565b5b600182039050919050565b7f4e487b7100000000000000000000000000000000000000000000000000000000600052601160045260246000fd5b6000601f19601f8301169050919050565b61108381610f4d565b811461108e57600080fd5b50565b61109a81610f5f565b81146110a557600080fd5b50565b6110b181610f6b565b81146110bc57600080fd5b50565b6110c881610f75565b81146110d357600080fd5b50565b6110df81610fa1565b81146110ea57600080fd5b50565b6110f681610fd3565b811461110157600080fd5b5056fea2646970667358221220a4e9ae474652af49849d4f5557156d493bd6bab8062314bb7a1d396bc3d089a964736f6c63430008000033",
  "linkReferences": {},
  "deployedLinkReferences": {}
}